:100000000C942A000C94E4150C9429160C946E168A
:100010000C9416140C9449140C94E0120C941313C1
:100020000C9446130C9479130C9406110C9439110A
:100030000C9447000C9447000C9447000C94470024
:100040000C9447000C9447000C9447000C94470014
:100050000C94470011241FBECFE5D8E0DEBFCDBF12
:1000600011E0A8E6B1E001C01D92A03AB107E1F7A6
:1000700011E0A0E6B0E0E2E2FDE302C005900D92DF
:10008000A836B107D9F70E94EF1D0C948F1E0C946F
:100090000000A0E3B0E0EFE4F0E00C94581EA8E00C
:1000A0004E010894811C911CF401BA2F1192BA954B
:1000B000E9F729833A834B835C836D837E838F8347
:1000C0009887CE010996FC011192AA95E9F7A986B5
:1000D000BA86CB86DC86ED86FE860F87188B298153
:1000E0003A814B815C812DA73EA74FA758AB790180
:1000F0008A018FEF9FEFA0E0B0E0E822F9220A2307
:100100001B231A014424552429853A854B855C8597
:1001100029A73AA74BA75CA759016A01A822B922CF
:10012000CA22DB223A0188249924C601B501A8011C
:1001300097010E94391E6DA37EA38FA398A7C401C7
:10014000B3010E94391E69A37AA38BA39CA3C601A5
:10015000B501A20191010E94391E7B018C01C401ED
:10016000B3010E94391E5B016C0189A19AA1ABA168
:10017000BCA18E0D9F1DA01FB11F89A39AA3ABA385
:10018000BCA32DA13EA14FA158A5CA01AA27BB27F8
:1001900029A13AA14BA15CA1280F391F4A1F5B1F5F
:1001A00029A33AA34BA35CA32E153F054007510793
:1001B00040F480E090E0A1E0B0E0A80EB91ECA1EB5
:1001C000DB1E89A19AA1ABA1BCA19D0144275527A3
:1001D0002A0D3B1D4C1D5D1D2D8F3E8F4F8F58A34B
:1001E0006C01BB24AA248DA19EA1AFA1B8A5A070CB
:1001F000B070A80EB91ECA1EDB1EA98EBA8ECB8E99
:10020000DC8E9A8C8B8C7C8C9E8D6F8D78A1FE0100
:10021000719688E0DF011D928A95E9F72D8B9E8B00
:100220006F8B788F2D853E854F8558896DA57EA56E
:100230008FA598A90E94391E7B018C012D813E81DA
:100240004F81588569A57AA58BA59CA50E94391E6A
:10025000E60EF71E081F191F6D897E898F89988DFC
:100260006E0D7F1D801F911F6D8B7E8B8F8B988FE6
:10027000EE892A2D392D482D572D7E2F8F89988D67
:10028000E096E2E10C94741EEF92FF920F93DF93DD
:10029000CF93CDB7DEB760970FB6F894DEBF0FBE31
:1002A000CDBFA82F002309F461C07E010894E11C92
:1002B000F11C88E0F70111928A95E9F729833A83C6
:1002C0004B835C836D837E83AF83988780E2801B42
:1002D000E82FFF27E7FDF09549815A816B817C81EA
:1002E000181684F019861A861B861C86882799277B
:1002F0008E1B9F0B04C0440F551F661F771F8A95E6
:10030000D2F728C0202F332727FD3095DB01CA0103
:10031000022E04C0880F991FAA1FBB1F0A94D2F790
:1003200089879A87AB87BC8704C076956795579570
:100330004795EA95D2F78D819E81AF81B88504C03B
:10034000880F991FAA1FBB1F2A95D2F7482B592B3C
:100350006A2B7B2B4D875E876F87788B29853A8543
:100360004B855C856D857E85AF8598898A2F6096E3
:100370000FB6F894DEBF0FBECDBFCF91DF910F91C6
:10038000FF90EF900895EF92FF920F931F937B01E0
:100390008C0120E030E040E05FE40E944B068823BF
:1003A0008CF0C801B70120E030E040E05FE40E943B
:1003B00017040E9409079B01AC01205030404040C7
:1003C000504806C0C801B7010E9409079B01AC0153
:1003D000B901CA011F910F91FF90EF900895A2E01B
:1003E000B0E0E5EFF1E00C94581E122FB32EA42ECE
:1003F000952E862E372E282E9A83C22ED32EE42EAB
:10040000F52EA701960160E070E080E090E02117F2
:10041000A1F43B1591F44A1581F4591571F468154E
:1004200061F4731551F4821541F4AA819A1729F4E5
:10043000C701B6010E945D07AAC0212F3B2D4A2D9E
:10044000592D682D732D822D9A8100E20E94D607C6
:10045000C901DA018030E0E09E07E1E0AE07E0E0AC
:10046000BE0780F48F3F9105A105B10531F028F05A
:1004700028E030E040E050E016C020E030E040E00E
:1004800050E011C08030F0E09F07F0E0AF07F1E0EE
:10049000BF0728F028E130E040E050E004C020E150
:1004A00030E040E050E0022E04C0B695A795979545
:1004B00087950A94D2F7FC01E859FF4F8081290102
:1004C0003A01480E511C611C711C4982212F3B2DA1
:1004D0004A2D592D682D732D822D9A81042D0E944D
:1004E000D607C901DA014C015D0180E290E0841970
:1004F000950904C0CC0CDD1CEE1CFF1C8A95D2F7BC
:10050000C114D104E104F10441F081E090E0A0E0E5
:10051000B0E0882A992AAA2ABB2A90E249165104F7
:100520006104710459F40F2EF0E0EF2EF0E0FF2E7D
:10053000F0E80F2FFFE41F2FF02D21C0AFE14A1686
:1005400051046104710459F40F2EF0E0EF2EF0E035
:10055000FF2EF0E00F2FFFE41F2FF02D10C061E001
:1005600070E080E090E0098004C0660F771F881F6C
:10057000991F0A94D2F70E94AB067B018C01C5013A
:10058000B4010E945D07A80197010E94750422969C
:10059000E2E10C94741EA0E0B0E0E1EDF2E00C9416
:1005A000581EDC012B01FA019C91923008F439C1EC
:1005B000EB018881823008F433C1943069F48430CF
:1005C00009F02FC111969C9111978981981709F410
:1005D00028C1A0E6B0E025C1843009F421C18230F1
:1005E000A9F4923009F01DC19A01AD0188E0EA0139
:1005F0000990AE01E90109929E018150C1F7E20123
:10060000898111969C918923818308C1923009F4D4
:1006100007C112962D903C901397EB018A819B8124
:100620001496AD90BD90CD90DC901797EC80FD8036
:100630000E811F819101281B390BB90137FF04C0BE
:1006400066277727621B730B603271050CF061C05F
:10065000121613066CF537014801062E04C0969455
:100660008794779467940A94D2F721E030E040E0D1
:1006700050E004C0220F331F441F551F6A95D2F764
:1006800021503040404050402E213F2140235123F3
:10069000211531054105510521F021E030E040E010
:1006A00050E079018A01E628F728082919293CC079
:1006B000232BD1F1260E371E35014601062E04C02C
:1006C00096948794779467940A94D2F721E030E067
:1006D00040E050E004C0220F331F441F551F6A95AD
:1006E000D2F721503040404050402A213B214C213C
:1006F0005D21211531054105510521F021E030E052
:1007000040E050E059016A01A628B728C828D92836
:100710000BC0821593052CF01C01AA24BB24650193
:1007200003C0EE24FF24870111969C91D2011196FB
:100730008C91981709F445C0992339F0A8019701C5
:100740002A193B094C095D0906C0A60195012E191D
:100750003F09400B510B57FD08C0118233822282A2
:1007600024833583468357831DC081E08183338290
:10077000228288279927DC01821B930BA40BB50BDF
:1007800084839583A683B7830DC0220F331F441F34
:10079000551F248335834683578382819381019734
:1007A000938382832481358146815781DA01C9018F
:1007B0000197A109B1098F5F9F4FAF4FBF4328F346
:1007C0000BC0918333822282EA0CFB1C0C1D1D1D81
:1007D000E482F5820683178383E080832481358158
:1007E0004681578157FF1AC0C901AA2797FDA095D6
:1007F000BA2F81709070A070B0705695479537955C
:100800002795822B932BA42BB52B84839583A683CA
:10081000B78382819381019693838283DF0101C034
:10082000D201CD01CDB7DEB7E2E10C94741EA0E297
:10083000B0E0EDE1F4E00C94641E69837A838B836D
:100840009C832D833E834F835887E9E0EE2EF12C65
:10085000EC0EFD1ECE010196B7010E9479098E01B2
:100860000F5E1F4FCE010596B8010E9479098A8953
:1008700091E089278A8BC701B801AE01475E5F4FBF
:100880000E94CB020E94A408A096E6E00C94801E71
:10089000A0E2B0E0EEE4F4E00C94641E69837A8395
:1008A0008B839C832D833E834F835887F9E0EF2E03
:1008B000F12CEC0EFD1ECE010196B7010E947909C4
:1008C0008E010F5E1F4FCE010596B8010E94790977
:1008D000C701B801AE01475E5F4F0E94CB020E9484
:1008E000A408A096E6E00C94801EA0E2B0E0EBE73E
:1008F000F4E00C94581E69837A838B839C832D8348
:100900003E834F835887CE010196BE01675F7F4FBC
:100910000E947909CE010596BE016F5E7F4F0E944D
:1009200079099985923088F089898230C8F09430AD
:1009300019F4823051F404C0843029F4923081F4E7
:1009400080E690E0C6C0923049F420E09A858A891A
:10095000981321E02A87CE010996BBC0823049F462
:1009600020E09A858A89981321E02A8BCE0141964E
:10097000B0C02D843E844F8458886D887E888F88CF
:10098000988CEE24FF248701AA24BB24650140E053
:1009900050E060E070E0E0E0F0E0C1018170907054
:1009A000892BE9F0E60CF71C081D191D9A01AB0113
:1009B0002A0D3B1D4C1D5D1D80E090E0A0E0B0E0E5
:1009C000E614F7040805190520F481E090E0A0E0A2
:1009D000B0E0BA01A901480F591F6A1F7B1FAA0C7A
:1009E000BB1CCC1CDD1C97FE08C081E090E0A0E0A1
:1009F000B0E0A82AB92ACA2ADB2A3196E032F105EA
:100A000049F0660C771C881C991C569447943794BF
:100A10002794C3CFFA85EA892B893C898B859C85ED
:100A2000280F391F2E5F3F4F17C0CA018170907089
:100A3000892B61F016950795F794E79480E090E094
:100A4000A0E0B0E8E82AF92A0A2B1B2B76956795D7
:100A5000579547952F5F3F4F77FDE7CF0CC0440F69
:100A6000551F661F771F17FD4160EE0CFF1C001F0E
:100A7000111F21503040403090E0590790E0690745
:100A800090E4790760F32B8F3C8FDB01CA018F77ED
:100A90009070A070B07080349105A105B10561F42B
:100AA00047FD0AC0E114F1040105110529F0405C7D
:100AB0005F4F6F4F7F4F40781A8EFE1711F081E025
:100AC0008A8F4D8F5E8F6F8F78A383E0898FCE01E1
:100AD00049960E94A408A096E2E10C94741EA8E135
:100AE000B0E0E5E7F5E00C94601E69837A838B83C0
:100AF0009C832D833E834F835887B9E0EB2EF12CE6
:100B0000EC0EFD1ECE010196B7010E9479098E01FF
:100B10000F5E1F4FCE010596B8010E947909298505
:100B2000223008F47EC03989323010F4B8017CC01C
:100B30008A859A8989278A87243011F0223031F4F6
:100B4000231709F06EC060E670E06EC0343039F4EF
:100B50001D861E861F86188A1C861B8604C032309E
:100B600021F484E08987B7015FC02B853C858B89A0
:100B70009C89281B390B3C872B87ED84FE840F85CD
:100B80001889AD88BE88CF88D88CEA14FB040C0580
:100B90001D0540F4EE0CFF1C001F111F21503040BA
:100BA0003C872B8720E030E040E050E080E090E0A0
:100BB000A0E0B0E460E070E0EA14FB040C051D0561
:100BC00040F0282B392B4A2B5B2BEA18FB080C0929
:100BD0001D09B695A79597958795EE0CFF1C001FEC
:100BE000111F6F5F7F4F6F31710531F7DA01C90156
:100BF0008F779070A070B07080349105A105B10519
:100C000061F427FD0AC0E114F1040105110529F082
:100C1000205C3F4F4F4F5F4F20782D873E874F8797
:100C2000588BBE01675F7F4FCB010E94A408689676
:100C3000EAE00C947C1EA8E1B0E0E1E2F6E00C945E
:100C4000641E69837A838B839C832D833E834F83C9
:100C5000588789E0E82EF12CEC0EFD1ECE0101969E
:100C6000B7010E9479098E010F5E1F4FCE010596D4
:100C7000B8010E9479098985823040F089898230E3
:100C800028F0C701B8010E94F10901C08FEF6896F2
:100C9000E6E00C94801EA8E1B0E0E1E5F6E00C94FB
:100CA000641E69837A838B839C832D833E834F8369
:100CB000588789E0E82EF12CEC0EFD1ECE0101963E
:100CC000B7010E9479098E010F5E1F4FCE01059674
:100CD000B8010E9479098985823040F08989823083
:100CE00028F0C701B8010E94F10901C08FEF689692
:100CF000E6E00C94801EA8E1B0E0E1E8F6E00C9498
:100D0000641E69837A838B839C832D833E834F8308
:100D1000588789E0E82EF12CEC0EFD1ECE010196DD
:100D2000B7010E9479098E010F5E1F4FCE01059613
:100D3000B8010E9479098985823040F08989823022
:100D400028F0C701B8010E94F10901C081E068964E
:100D5000E6E00C94801EA8E0B0E0E1EBF6E00C9435
:100D6000611E9B01AC0183E08983DA01C9018827F8
:100D7000B7FD83959927AA27BB27B82E21153105E2
:100D80004105510519F482E089833AC08823A9F00E
:100D9000203080E0380780E0480780E8580729F4D1
:100DA00060E070E080E09FEC30C0EE24FF2487011B
:100DB000E21AF30A040B150B02C079018A018EE1D5
:100DC000C82ED12CDC82CB82ED82FE820F83188765
:100DD000C801B7010E94550801971816190684F436
:100DE000082E04C0EE0CFF1C001F111F0A94D2F73E
:100DF000ED82FE820F831887C81AD90ADC82CB8263
:100E0000BA82CE0101960E94A4082896E9E00C94CB
:100E10007D1EACE0B0E0EFE0F7E00C94681E698363
:100E20007A838B839C83CE010196BE016B5F7F4FDB
:100E30000E9479098D81823061F1823050F18430D5
:100E400021F48E81882351F12EC02F81388537FD02
:100E500020C06E812F3131051CF06623F9F023C0CC
:100E60008EE190E0821B930B29853A854B855C854A
:100E700004C056954795379527958A95D2F76623EE
:100E8000B1F050954095309521953F4F4F4F5F4FB2
:100E90000EC020E030E040E050E009C02FEF3FEF0F
:100EA0004FEF5FE704C020E030E040E050E8B901D8
:100EB000CA012C96E2E00C94841EA8E0B0E0E3E6C0
:100EC000F7E00C94601E7B018C01611571058105B2
:100ED000910519F482E0898360C083E089838EE103
:100EE000C82ED12CDC82CB82ED82FE820F83188744
:100EF000C801B7010E945508FC013197F7FF3BC0BC
:100F0000222733272E1B3F0B57016801022E04C0F6
:100F1000D694C794B794A7940A94D2F740E050E0CF
:100F200060E070E081E090E0A0E0B0E004C0880FF5
:100F3000991FAA1FBB1F2A95D2F70197A109B109D2
:100F40008E219F21A023B1230097A105B10521F097
:100F500041E050E060E070E04A295B296C297D297E
:100F60004D835E836F8378878EE190E08E1B9F0BAD
:100F70009C838B8312C0309781F00E2E04C0EE0C40
:100F8000FF1C001F111F0A94D2F7ED82FE820F830F
:100F90001887CE1ADF0ADC82CB821A82CE01019634
:100FA0000E94A4082896EAE00C947C1EEF92FF921F
:100FB0000F93DF93CF93CDB7DEB760970FB6F8945A
:100FC000DEBF0FBECDBFA82F002309F461C07E0194
:100FD0000894E11CF11C88E0F70111928A95E9F769
:100FE00029833A834B835C836D837E83AF839887A9
:100FF00080E2801BE82FFF27E7FDF0954D815E81A1
:101000006F817885181684F01D861E861F86188AC3
:10101000882799278E1B9F0B04C076956795579557
:1010200047958A95D2F728C0202F332727FD309582
:10103000DB01CA01022E04C0B695A7959795879546
:101040000A94D2F78D879E87AF87B88B04C0440F70
:10105000551F661F771FEA95D2F789819A81AB8168
:10106000BC8104C0B695A795979587952A95D2F728
:10107000482B592B6A2B7B2B49875A876B877C8798
:1010800029853A854B855C856D857E85AF859889F8
:101090008A2F60960FB6F894DEBF0FBECDBFCF91FA
:1010A000DF910F91FF90EF900895EF92FF920F93D1
:1010B0001F937B018C0180E0E81680E0F80681E058
:1010C000080780E0180788F48FEFE816F10401059F
:1010D000110531F028F088E090E0A0E0B0E017C002
:1010E00080E090E0A0E0B0E012C080E0E81680E090
:1010F000F80680E0080781E0180728F088E190E012
:10110000A0E0B0E004C080E190E0A0E0B0E020E228
:1011100030E040E050E0281B390B4A0B5B0B04C069
:1011200016950795F794E7948A95D2F7F701E85951
:10113000FF4F8081281B310941095109C9011F91C5
:101140000F91FF90EF900895DF92EF92FF920F932F
:101150001F93FC01E480F58006811781D180808196
:10116000823048F480E090E0A0E1B0E0E82AF92A7B
:101170000A2B1B2BA5C0843009F49FC0823021F4B8
:10118000EE24FF24870105C0E114F10401051105D7
:1011900019F4E0E0F0E096C0628173819FEF62385D
:1011A00079070CF05BC022E83FEF261B370B2A3192
:1011B00031052CF020E030E040E050E02AC0B801DA
:1011C000A701022E04C076956795579547950A9416
:1011D000D2F781E090E0A0E0B0E004C0880F991F52
:1011E000AA1FBB1F2A95D2F70197A109B1098E2129
:1011F0009F21A023B1230097A105B10521F081E033
:1012000090E0A0E0B0E09A01AB01282B392B4A2BEB
:101210005B2BDA01C9018F779070A070B0708034B9
:101220009105A105B10539F427FF09C0205C3F4FA6
:101230004F4F5F4F04C0215C3F4F4F4F5F4FE0E087
:10124000F0E02030A0E03A07A0E04A07A0E45A0707
:1012500010F0E1E0F0E079018A0127C06038710503
:1012600064F5FB01E158FF4FD801C7018F779070FB
:10127000A070B07080349105A105B10539F4E7FE86
:101280000DC080E490E0A0E0B0E004C08FE390E007
:10129000A0E0B0E0E80EF91E0A1F1B1F17FF05C0F3
:1012A00016950795F794E794319687E0169507957C
:1012B000F794E7948A95D1F705C0EE24FF248701BF
:1012C000EFEFF0E06E2F679566276795902F9F7779
:1012D000D794DD24D7948E2F8695492F462B582FEF
:1012E0005D29B701CA011F910F91FF90EF90DF9028
:1012F0000895FC01DB01408151812281622F6F77CB
:1013000070E0221F2227221F9381892F880F822BB2
:10131000282F30E0991F9927991F11969C931197B8
:1013200021153105A9F5411551056105710511F426
:1013300082E037C082E89FEF13969C938E931297BA
:101340009A01AB0167E0220F331F441F551F6A95B6
:10135000D1F783E08C930DC0220F331F441F551F1C
:1013600012968D919C911397019713969C938E934F
:101370001297203080E0380780E0480780E4580763
:1013800058F314962D933D934D935C9317970895BE
:101390002F3F310579F4411551056105710519F4A7
:1013A00084E08C93089564FF03C081E08C9312C0A5
:1013B0001C9210C02F57304013963C932E931297D7
:1013C00083E08C9387E0440F551F661F771F8A9533
:1013D000D1F7706414964D935D936D937C9317973A
:1013E00008951F93DC01FB019C91923008F447C0E3
:1013F0008081823008F443C0943051F411961C91DE
:10140000843099F58181682F70E0611B71093FC0BC
:10141000843021F0923031F48230B9F18181882317
:1014200089F12DC011961C9111978230F1F08181C4
:101430001817D9F412962D913C91139782819381BC
:101440008217930794F028173907BCF014968D91F2
:101450009D910D90BC91A02D2481358146815781AD
:10146000281739074A075B0718F4112341F00AC00F
:1014700082179307A407B50740F4112319F061E020
:1014800070E005C06FEF7FEF02C060E070E0CB015D
:101490001F910895DF93CF93CDB7DEB7A3E5B0E0FA
:1014A000E3E5F0E080818F7B8C93A3E5B0E0E3E59A
:1014B000F0E08081877F8C93A9E5B0E0E9E5F0E07A
:1014C00080818E7F8C93A3E5B0E0E3E5F0E080813E
:1014D000887F8C93A3E5B0E0E3E5F0E08081816054
:1014E0008C93CF91DF910895DF93CF930F92CDB777
:1014F000DEB78983ECE5F0E0898180830F90CF919E
:10150000DF910895DF93CF930F92CDB7DEB7898334
:10151000E2E5F0E0898180830F90CF91DF9108951B
:10152000DF93CF9300D0CDB7DEB79A8389838981CB
:101530009A8190936901809368010F900F90CF91E9
:10154000DF910895DF93CF9300D0CDB7DEB79A83B4
:10155000898389819A8190936B0180936A010F90AE
:101560000F90CF91DF910895AF92BF92CF92DF920B
:10157000EF92FF920F931F93DF93CF93CDB7DEB718
:10158000CD57D0400FB6F894DEBF0FBECDBF2E8B27
:101590003F8B488F598F6A8F7B8F8C8F9D8F0E8FDB
:1015A0008E8D813009F02CC40E8908AB1F8919ABD0
:1015B000288D2AAB398D3BAB4A8D4CAB5B8D5DAB37
:1015C0006C8D6EAB7D8D7FABA8A8B9A8CAA8DBA82F
:1015D000ECA8FDA80EA91FA92A2D3B2D4C2D5D2D91
:1015E0006E2D7F2D802F912F02E00E94440128AFA5
:1015F00039AF4AAF5BAF6CAF7DAF8EAF9FAF28AD59
:1016000039AD4AAD5BAD6CAD7DAD8EAD9FAD05E046
:101610000E94440121962FAF219722963FAF229737
:1016200023964FAF239724965FAF249725966FAFED
:10163000259726967FAF269727968FAF27972896D0
:101640009FAF289721968FAD219798AD891B29963A
:101650008FAF299701E061960FAF619729961FAD73
:10166000299721962FAD2197211718F061961FAE6B
:10167000619722963FAD229749AD341B2A963FAF22
:101680002A9751E062965FAF62972A966FAD2A97CC
:1016900022967FAD2297761718F062961FAE62975A
:1016A0002A968FAD2A9761969FAD6197891B6396A5
:1016B0008FAF639701E064960FAF649763961FAD99
:1016C00063972A962FAD2A97211718F064961FAEBC
:1016D000649762963FAD629764964FAD6497342BE2
:1016E00062963FAF629763965FAD63972A965FAF4E
:1016F0002A9723966FAD23977AAD671B2B966FAF12
:101700002B9781E065968FAF65972B969FAD2B97B2
:1017100023960FAD2397091718F065961FAE6597AE
:101720002B961FAD2B9762962FAD6297121B669674
:101730001FAF669731E067963FAF679766964FADEC
:1017400066972B965FAD2B97541718F067961FAED0
:10175000679765966FAD659767967FAD6797672BBF
:1017600065966FAF659766968FAD66972B968FAF30
:101770002B9724969FAD24970BAD901B2C969FAF73
:101780002C9711E068961FAF68972C962FAD2C9779
:1017900024963FAD2497321718F068961FAE6897CD
:1017A0002C964FAD2C9765965FAD6597451B699656
:1017B0004FAF699761E06A966FAF6A9769967FADA0
:1017C00069972C968FAD2C97871718F06A961FAEE5
:1017D0006A9768969FAD68976A960FAD6A97902B47
:1017E00068969FAF689769961FAD69972C961FAF53
:1017F0002C9725962FAD25973CAD231B2D962FAF0B
:101800002D9741E06B964FAF6B972D965FAD2D975F
:1018100025966FAD2597651718F06B961FAE6B97E1
:101820002D967FAD2D9768968FAD6897781B6C9637
:101830007FAF6C9791E06D969FAF6D976C960FADF3
:101840006C972D961FAD2D97101718F06D961FAE43
:101850006D976B962FAD6B976D963FAD6D97232B64
:101860006B962FAF6B976C964FAD6C972D964FAFD5
:101870002D9726965FAD26976DAD561B2E965FAFC2
:101880002E9771E06E967FAF6E972E968FAD2E9746
:1018900026969FAD2697981718F06E961FAE6E97F6
:1018A0002E960FAD2E976B961FAD6B97011B6F9603
:1018B0000FAF6F9721E0A0962FAFA0976F963FAD27
:1018C0006F972E964FAD2E97431718F0A0961FAE28
:1018D000A0976E965FAD6E97A0966FADA097562BB2
:1018E0006E965FAF6E976F967FAD6F972E967FAFB8
:1018F0002E9727968FAD27979EAD891B2F968FAF7A
:101900002F9701E0A1960FAFA1972F961FAD2F97AC
:1019100027962FAD2797211718F0A1961FAEA197F4
:101920002F963FAD2F976E964FAD6E97341BA296B4
:101930003FAFA29751E0A3965FAFA397A2966FAD7A
:10194000A2972F967FAD2F97761718F0A3961FAE0C
:10195000A397A1968FADA197A3969FADA397892B2F
:10196000A1968FAFA197A2960FADA2972F960FAF1A
:101970002F9728961FAD28972FAD121B60961FAF8B
:10198000609760968FAD6097A1963FADA197831B3E
:1019900060968FAF609729964FAD299721964FAFEC
:1019A00021972A965FAD2A9722965FAF22972B96B2
:1019B0006FAD2B9723966FAF23972C967FAD2C9707
:1019C00024967FAF24972D968FAD2D9725968FAFB8
:1019D00025972E969FAD2E9726969FAF26972F96EA
:1019E0000FAD2F9727960FAF279760961FAD609783
:1019F00028961FAF289721962FAD219738A9230F3E
:101A0000A4962FAFA49741E0AC964FAFAC97A496A5
:101A10005FADA49721966FAD2197561718F0AC963D
:101A20001FAEAC9722967FAD229789A9780FA59615
:101A30007FAFA59791E0AD969FAFAD97A5960FADFF
:101A4000A59722961FAD2297011718F0AD961FAEED
:101A5000AD97AC962FADAC97A5963FADA597230F4C
:101A6000AE962FAFAE9741E0AF964FAFAF97AE9621
:101A70005FADAE97A5966FADA597561718F0AF96C8
:101A80001FAEAF97AD967FADAD97AF968FADAF97C9
:101A9000782BAD967FAFAD97AE969FADAE97A596DE
:101AA0009FAFA59723960FAD23971AA9010FA6966E
:101AB0000FAFA69721E0E0962FAFE097A6963FAD37
:101AC000A69723964FAD2397341718F0E0961FAED4
:101AD000E097AD965FADAD97A6966FADA697560F02
:101AE000E1965FAFE19771E0E2967FAFE297E19612
:101AF0008FADE197A6969FADA697891718F0E2964D
:101B00001FAEE297E0960FADE097E2961FADE29729
:101B1000012BE0960FAFE097E1962FADE197A696E7
:101B20002FAFA69724963FAD24974BA9340FA796C5
:101B30003FAFA79751E0E3965FAFE397A7966FADEE
:101B4000A79724967FAD2497671718F0E3961FAEEA
:101B5000E397E0968FADE097A7969FADA797890F83
:101B6000E4968FAFE49701E0E5960FAFE597E49632
:101B70001FADE497A7962FADA797121718F0E5961B
:101B80001FAEE597E3963FADE397E5964FADE5973A
:101B9000342BE3963FAFE397E4965FADE497A796C7
:101BA0005FAFA79725966FAD25977CA9670FA8967D
:101BB0006FAFA89781E0E6968FAFE697A8969FADA6
:101BC000A89725960FAD2597901718F0E6961FAEAB
:101BD000E697E3961FADE397A8962FADA897120F4F
:101BE000E7961FAFE79731E0E8963FAFE897E796B3
:101BF0004FADE797A8965FADA897451718F0E89600
:101C00001FAEE897E6966FADE697E8967FADE8974A
:101C1000672BE6966FAFE697E7968FADE797A896A6
:101C20008FAFA89726969FAD26970DA9900FA996DE
:101C30009FAFA99711E0E9961FAFE997A9962FAD3D
:101C4000A99726963FAD2697231718F0E9961FAE61
:101C5000E997E6964FADE697A9965FADA997450F30
:101C6000EA964FAFEA9761E0EB966FAFEB97EA9693
:101C70007FADEA97A9968FADA997781718F0EB96E4
:101C80001FAEEB97E9969FADE997EB960FADEB97FB
:101C9000902BE9969FAFE997EA961FADEA97A99630
:101CA0001FAFA99727962FAD27973EA9230FAA9676
:101CB0002FAFAA9741E0EC964FAFEC97AA965FAD95
:101CC000AA9727966FAD2797561718F0EC961FAE78
:101CD000EC97E9967FADE997AA968FADAA97780F12
:101CE000ED967FAFED9791E0EE969FAFEE97ED9674
:101CF0000FADED97AA961FADAA97011718F0EE96B3
:101D00001FAEEE97EC962FADEC97EE963FADEE97AB
:101D1000232BEC962FAFEC97ED964FADED97AA964F
:101D20004FAFAA9728965FAD28976FA9560FAB962D
:101D30005FAFAB97EC968FADEC97AB967FADAB9763
:101D4000870FAB968FAFAB97A4968FADA4972196D4
:101D50008FAF2197A5969FADA59722969FAF22970B
:101D6000A6960FADA69723960FAF2397A7961FAD04
:101D7000A79724961FAF2497A8962FADA8972596CE
:101D80002FAF2597A9963FADA99726963FAF2697E7
:101D9000AA964FADAA9727964FAF2797AB965FAD00
:101DA000AB9728965FAF289721962FAD2197229663
:101DB0003FAD229723964FAD239724965FAD24978E
:101DC00025966FAD259726967FAD269727968FADE2
:101DD000279728969FAD289703E00E944401A22EE2
:101DE000B32EC42ED52EE62EF72E082F192FAE8A2D
:101DF000BF8AC88ED98EEA8EFB8E0C8F1D8F2DC0A8
:101E00008E8D823051F52E893F89488D598D6A8D8E
:101E10007B8D8C8D9D8DAA246894A6F80F2EF2E4FC
:101E2000BF2EF02D0F2EFFE0CF2EF02DDD24EE245F
:101E3000FF2400E010E00E944900A22EB32EC42E21
:101E4000D52EE62EF72E082F192FAE8ABF8AC88E00
:101E5000D98EEA8EFB8E0C8F1D8F80E090E0A0E083
:101E6000B0E08E879F87A88BB98B8FEF8D871986FF
:101E70001A861B861C8680E090E0A0E0BEE38A8B79
:101E80009B8BAC8BBD8B6A897B898C899D8920E07B
:101E900030E040E853E40E947504DC01CB01BC0152
:101EA000CD010E94C301DC01CB018D839E83AF83F2
:101EB000B8872E893F89488D598D6A8D7B8D8C8D91
:101EC0009D8D0E94EF01DC01CB01BC01CD012A896F
:101ED0003B894C895D890E947B0618161CF081E0C5
:101EE0008D8733C12E893F89488D598D6A8D7B8DB1
:101EF0008C8D9D8D0E94EF01DC01CB011FA6BC01E2
:101F0000CD012A893B894C895D890E941B061816E0
:101F100014F461E06FA781E07FA58727882309F08B
:101F200079C08D819E81AF81B8858C019D0140E093
:101F300050E060E070E00FA318A729A73AA74BA7CD
:101F40005CA76DA77EA78D8D1EA5181708F462C02B
:101F50008D8D2EA58217C1F58C8D3DA5381708F4FF
:101F600059C08C8D4DA5841779F58B8D5CA55817BC
:101F700008F450C08B8D6CA5861731F58A8D7BA532
:101F8000781708F447C08A8D9BA58917E9F4898DD5
:101F90000AA5081708F43EC0898D1AA58117A1F477
:101FA000888D29A52817B0F1888D39A5831761F48C
:101FB0008F8948A5481770F18F8958A5851721F496
:101FC0008E896FA1681730F12E893F89488D598D10
:101FD0006A8D7B8D8C8D9D8D0E94EF01DC01CB0184
:101FE000BC01CD012A893B894C895D890E946F051E
:101FF000DC01CB01BC01CD010E94C301DC01CB019E
:102000008D8781E090E0A0E0B0E089879A87AB8778
:10201000BC879BC08D819E81AF81B8858C019D015D
:1020200040E050E060E070E00F8F18A329A33AA3CE
:102030004BA35CA36DA37EA38D8D1EA1181708F47E
:1020400040C08D8D2EA1821709F07FC08C8D3DA1DF
:102050003817B8F18C8D4DA1841709F076C08B8D9F
:102060005CA1581770F18B8D6CA1861709F06DC0BB
:102070008A8D7BA1781728F18A8D9BA1891709F099
:1020800064C0898D0AA10817E0F0898D1AA1811713
:1020900009F05BC0888D29A1281798F0888D39A197
:1020A000831709F052C08F8948A1481750F08F89D3
:1020B00058A1851709F049C08E896F8D681708F0FF
:1020C00044C02E893F89488D598D6A8D7B8D8C8DBA
:1020D0009D8D0E94EF017B018C016A897B898C892F
:1020E0009D8920E030E040E853E40E947504DC0163
:1020F000CB019C01AD01C801B7010E946F05DC0155
:10210000CB018E879F87A88BB98B6E857F85888949
:1021100099890E94C301DC01CB0189879A87AB872B
:10212000BC8769857A858B859C850E945D079B01AC
:10213000AC016E857F85888999890E941704DC012E
:10214000CB018E879F87A88BB98B60E070E080E819
:102150009FE32E853F85488959890E941704DC0139
:10216000CB01BC01CD0120E030E040E853E40E9407
:102170007504DC01CB01BC01CD010E94C301DC016F
:10218000CB018D878D850E94820A0E944A0A19829E
:102190001A821B821C821BC0E8E5F0E08081882F38
:1021A00090E0817090700097B9F3A8E5B0E0E8E5A1
:1021B000F0E0808181608C9389819A81AB81BC81C0
:1021C0000196A11DB11D89839A83AB83BC832981AC
:1021D0003A814B815C8189859A85AB85BC85821764
:1021E0009307A407B507C0F6C358DF4F0FB6F8949E
:1021F000DEBF0FBECDBFCF91DF911F910F91FF903A
:10220000EF90DF90CF90BF90AF9008951F920F9204
:102210000FB60F9211242F933F934F935F936F93B9
:102220007F938F939F93AF93BF93EF93FF93DF932E
:10223000CF93CDB7DEB78091680190916901009787
:1022400029F0E0916801F09169010995CF91DF9142
:10225000FF91EF91BF91AF919F918F917F916F917E
:102260005F914F913F912F910F900FBE0F901F9054
:1022700018951F920F920FB60F9211242F933F9330
:102280004F935F936F937F938F939F93AF93BF937E
:10229000EF93FF93DF93CF93CDB7DEB780916A01C1
:1022A00090916B01009729F0E0916A01F0916B0128
:1022B0000995CF91DF91FF91EF91BF91AF919F91E0
:1022C0008F917F916F915F914F913F912F910F90DF
:1022D0000FBE0F901F901895DF93CF93CDB7DEB749
:1022E000AEE4B0E0EEE4F0E080819181877E9C7FF7
:1022F00011969C938E93AEE4B0E0EEE4F0E0808122
:10230000918111969C938E93A9E5B0E0E9E5F0E008
:1023100080818B7F8C93AEE4B0E0EEE4F0E08081CE
:10232000887F8C93AEE4B0E0EEE4F0E080818260E0
:102330008C93CF91DF910895DF93CF9300D0CDB7E9
:10234000DEB79A838983ECE4F0E089819A819183F6
:1023500080830F900F90CF91DF910895DF93CF93FB
:1023600000D0CDB7DEB79A838983E6E4F0E08981B7
:102370009A81918380830F900F90CF91DF91089580
:10238000DF93CF9300D0CDB7DEB79A838983EAE598
:10239000F0E089819A81918380830F900F90CF9193
:1023A000DF910895DF93CF9300D00F92CDB7DEB7C2
:1023B00089838981282F30E03B832A838A819B810E
:1023C000009769F02A813B812130310579F4A9E534
:1023D000B0E0E9E5F0E0808180618C9307C0A9E579
:1023E000B0E0E9E5F0E080818F7E8C930F900F9054
:1023F0000F90CF91DF910895DF93CF9300D0CDB7A9
:10240000DEB79A838983E8E4F0E089819A81918339
:1024100080830F900F90CF91DF910895DF93CF933A
:1024200000D00F92CDB7DEB789838981282F30E0A5
:102430003B832A838A819B81009769F02A813B81B3
:102440002130310579F4A9E5B0E0E9E5F0E08081DB
:1024500088608C9307C0A9E5B0E0E9E5F0E08081F1
:10246000877F8C930F900F900F90CF91DF910895FD
:10247000DF93CF9300D00F92CDB7DEB789838981E8
:10248000282F30E03B832A838A819B81009731F09B
:102490002A813B812130310549F00FC0AEE4B0E024
:1024A000EEE4F0E080818F7B8C9307C0AEE4B0E077
:1024B000EEE4F0E0808180648C930F900F900F9099
:1024C000CF91DF910895DF93CF93CDB7DEB7E6E4E8
:1024D000F0E080819181CF91DF910895DF93CF93D8
:1024E00000D00F92CDB7DEB789838981282F30E0E5
:1024F0003B832A838A819B81009769F02A813B81F3
:102500002130310579F4A9E5B0E0E9E5F0E080811A
:1025100080628C9307C0A9E5B0E0E9E5F0E0808136
:102520008F7D8C930F900F900F90CF91DF91089536
:10253000DF93CF9300D0CDB7DEB79A8389838981AB
:102540009A8190936D0180936C010F900F90CF91C1
:10255000DF910895DF93CF9300D0CDB7DEB79A8394
:10256000898389819A8190936F0180936E010F9086
:102570000F90CF91DF910895DF93CF9300D0CDB727
:10258000DEB79A83898389819A81909371018093C0
:1025900070010F900F90CF91DF910895DF93CF934B
:1025A00000D0CDB7DEB79A83898389819A819093D1
:1025B0007301809372010F900F90CF91DF91089576
:1025C0001F920F920FB60F9211242F933F934F93A8
:1025D0005F936F937F938F939F93AF93BF93EF938B
:1025E000FF93DF93CF93CDB7DEB780916C019091CD
:1025F0006D01009729F0E0916C01F0916D01099552
:10260000CF91DF91FF91EF91BF91AF919F918F910A
:102610007F916F915F914F913F912F910F900FBEDE
:102620000F901F9018951F920F920FB60F921124C2
:102630002F933F934F935F936F937F938F939F93CA
:10264000AF93BF93EF93FF93DF93CF93CDB7DEB7F5
:1026500080916E0190916F01009729F0E0916E01D9
:10266000F0916F010995CF91DF91FF91EF91BF91AB
:10267000AF919F918F917F916F915F914F913F911A
:102680002F910F900FBE0F901F9018951F920F92D1
:102690000FB60F9211242F933F934F935F936F9335
:1026A0007F938F939F93AF93BF93EF93FF93DF93AA
:1026B000CF93CDB7DEB780917001909171010097F3
:1026C00029F0E0917001F09171010995CF91DF91AE
:1026D000FF91EF91BF91AF919F918F917F916F91FA
:1026E0005F914F913F912F910F900FBE0F901F90D0
:1026F00018951F920F920FB60F9211242F933F93AC
:102700004F935F936F937F938F939F93AF93BF93F9
:10271000EF93FF93DF93CF93CDB7DEB78091720134
:1027200090917301009729F0E0917201F09173018B
:102730000995CF91DF91FF91EF91BF91AF919F915B
:102740008F917F916F915F914F913F912F910F905A
:102750000FBE0F901F901895DF93CF93CDB7DEB7C4
:10276000A5E4B0E0E5E4F0E080818F7B8C93A5E404
:10277000B0E0E5E4F0E08081877F8C93A9E5B0E0EC
:10278000E9E5F0E0808180648C93A5E4B0E0E5E4C5
:10279000F0E08081887F8C93A5E4B0E0E5E4F0E090
:1027A000808182608C93CF91DF910895DF93CF93E6
:1027B0000F92CDB7DEB78983E3E4F0E089818083AF
:1027C0000F90CF91DF910895DF93CF930F92CDB704
:1027D000DEB78983E4E4F0E0898180830F90CF91B4
:1027E000DF910895DF93CF9300D0CDB7DEB79A8302
:1027F000898389819A8190937501809374010F90E8
:102800000F90CF91DF910895DF93CF9300D0CDB794
:10281000DEB79A83898389819A8190937701809327
:1028200076010F900F90CF91DF9108951F920F9234
:102830000FB60F9211242F933F934F935F936F9393
:102840007F938F939F93AF93BF93EF93FF93DF9308
:10285000CF93CDB7DEB78091740190917501009749
:1028600029F0E0917401F09175010995CF91DF9104
:10287000FF91EF91BF91AF919F918F917F916F9158
:102880005F914F913F912F910F900FBE0F901F902E
:1028900018951F920F920FB60F9211242F933F930A
:1028A0004F935F936F937F938F939F93AF93BF9358
:1028B000EF93FF93DF93CF93CDB7DEB7809176018F
:1028C00090917701009729F0E0917601F0917701DE
:1028D0000995CF91DF91FF91EF91BF91AF919F91BA
:1028E0008F917F916F915F914F913F912F910F90B9
:1028F0000FBE0F901F901895DF93CF93CDB7DEB723
:10290000AFE5B0E0EFE5F0E0808180688C93CF9197
:10291000DF910895DF93CF93CDB7DEB7AFE5B0E099
:10292000EFE5F0E080818F778C93CF91DF91089570
:10293000DF93CF93CDB7DEB7ABE5B0E0EBE5F0E0EA
:10294000808180648C93A5E5B0E0E5E5F0E08081CE
:1029500082608C93A5E5B0E0E5E5F0E080818E7FB4
:102960008C93ABE5B0E0EBE5F0E080818F778C9362
:10297000ABE5B0E0EBE5F0E080818F7D8C93CF910B
:10298000DF910895DF93CF9300D00F92CDB7DEB7DC
:1029900089838981282F30E03B832A838A819B8128
:1029A0008130910509F442C02A813B8122303105F2
:1029B0002CF48A819B81009751F146C02A813B818A
:1029C0002230310531F08A819B818330910581F07D
:1029D0003BC0A5E5B0E0E5E5F0E080818D7F8C931C
:1029E000A5E5B0E0E5E5F0E080818E7F8C932CC01A
:1029F000A5E5B0E0E5E5F0E080818D7F8C93A5E56D
:102A0000B0E0E5E5F0E0808181608C931DC0A5E534
:102A1000B0E0E5E5F0E0808182608C93A5E5B0E070
:102A2000E5E5F0E080818E7F8C930EC0A5E5B0E0F7
:102A3000E5E5F0E0808182608C93A5E5B0E0E5E516
:102A4000F0E0808181608C93ABE5B0E0EBE5F0E0F5
:102A5000808180648C930F900F900F90CF91DF91C5
:102A60000895DF93CF9300D00F92CDB7DEB789835F
:102A70008981282F30E03B832A838A819B818130A2
:102A8000910509F442C02A813B81223031052CF4A2
:102A90008A819B81009751F146C02A813B81223077
:102AA000310531F08A819B818330910581F03BC0F3
:102AB000A5E5B0E0E5E5F0E08081877F8C93A5E5B2
:102AC000B0E0E5E5F0E080818B7F8C932CC0A5E53C
:102AD000B0E0E5E5F0E08081877F8C93A5E5B0E08C
:102AE000E5E5F0E0808184608C931DC0A5E5B0E051
:102AF000E5E5F0E0808188608C93A5E5B0E0E5E550
:102B0000F0E080818B7F8C930EC0A5E5B0E0E5E519
:102B1000F0E0808188608C93A5E5B0E0E5E5F0E029
:102B2000808184608C93ABE5B0E0EBE5F0E08081E0
:102B300080688C930F900F900F90CF91DF91089544
:102B4000DF93CF9300D00F92CDB7DEB78983898111
:102B5000282F30E03B832A838A819B81009731F0C4
:102B60002A813B812130310549F00FC0A4E5B0E056
:102B7000E4E5F0E080818F7B8C9307C0A4E5B0E0B2
:102B8000E4E5F0E0808180648C93ABE5B0E0EBE5B8
:102B9000F0E0808180628C930F900F900F90CF9126
:102BA000DF910895DF93CF9300D0CDB7DEB79A833E
:102BB000898389819A8190937901809378010F901C
:102BC0000F90CF91DF9108951F920F920FB60F9241
:102BD00011242F933F934F935F936F937F938F9322
:102BE0009F93AF93BF93EF93FF93DF93CF93CDB7B3
:102BF000DEB78091780190917901009729F0E091FA
:102C00007801F09179010995CF91DF91FF91EF91D2
:102C1000BF91AF919F918F917F916F915F914F91F4
:102C20003F912F910F900FBE0F901F901895DF933B
:102C3000CF9300D0CDB7DEB79A83898389819A81FB
:102C400090937B0180937A010F900F90CF91DF9149
:102C500008951F920F920FB60F9211242F933F9356
:102C60004F935F936F937F938F939F93AF93BF9394
:102C7000EF93FF93DF93CF93CDB7DEB780917A01C7
:102C800090917B01009729F0E0917A01F0917B010E
:102C90000995CF91DF91FF91EF91BF91AF919F91F6
:102CA0008F917F916F915F914F913F912F910F90F5
:102CB0000FBE0F901F901895DF93CF9300D0CDB724
:102CC000DEB79A83898389819A8190937D0180936D
:102CD0007C010F900F90CF91DF9108951F920F927A
:102CE0000FB60F9211242F933F934F935F936F93DF
:102CF0007F938F939F93AF93BF93EF93FF93DF9354
:102D0000CF93CDB7DEB780917C0190917D01009784
:102D100029F0E0917C01F0917D010995CF91DF913F
:102D2000FF91EF91BF91AF919F918F917F916F91A3
:102D30005F914F913F912F910F900FBE0F901F9079
:102D40001895DF93CF9300D000D00F92CDB7DEB7A8
:102D50008A836B8319828A81282F30E03D832C83FC
:102D60008C819D8181309105D1F02C813D81223073
:102D700031052CF48C819D81009761F01FC02C815E
:102D80003D812230310581F08C819D818330910518
:102D900081F014C0EAE3F0E08B81808311C0E7E3A7
:102DA000F0E08B8180830CC0E4E3F0E08B818083D2
:102DB00007C0E1E3F0E08B81808302C081E089837A
:102DC00089810F900F900F900F900F90CF91DF910E
:102DD0000895DF93CF9300D000D00F92CDB7DEB728
:102DE0008A836B8319828A81282F30E03D832C836C
:102DF0008C819D8181309105D1F02C813D812230E3
:102E000031052CF48C819D81009761F01FC02C81CD
:102E10003D812230310581F08C819D818330910587
:102E200081F014C0EBE3F0E08B81808311C0E8E314
:102E3000F0E08B8180830CC0E5E3F0E08B81808340
:102E400007C0E2E3F0E08B81808302C081E08983E8
:102E500089810F900F900F900F900F90CF91DF917D
:102E60000895DF93CF9300D000D000D0CDB7DEB768
:102E70008A837C836B8319828B819C81009709F400
:102E80003EC08A81282F30E03E832D838D819E8134
:102E900081309105E1F02D813E81223031052CF405
:102EA0008D819E81009761F027C02D813E81223067
:102EB0003105A1F08D819E8183309105B1F01CC058
:102EC000E9E3F0E08081EB81FC8180831AC0E6E3D6
:102ED000F0E08081EB81FC81808313C0E3E3F0E0CC
:102EE0008081EB81FC8180830CC0E0E3F0E0808195
:102EF000EB81FC81808305C081E0898302C081E091
:102F00008983898126960FB6F894DEBF0FBECDBFA8
:102F1000CF91DF910895DF93CF93CDB7DEB7289798
:102F20000FB6F894DEBF0FBECDBF8A836B834C8390
:102F300019828B81883008F0F4C08C81882309F0D5
:102F400077C08A81282F30E038872F838F8198853A
:102F50008130910559F12F813885223031052CF4CB
:102F60008F819885009769F060C02F813885223065
:102F7000310589F18F8198858330910509F440C02E
:102F800054C0AAE3B0E0EAE3F0E08081482F8B81EF
:102F9000282F30E081E090E0022E02C0880F991FB8
:102FA0000A94E2F7809584238C93BDC0A7E3B0E038
:102FB000E7E3F0E08081482F8B81282F30E081E02B
:102FC00090E0022E02C0880F991F0A94E2F78095C4
:102FD00084238C93A8C0A4E3B0E0E4E3F0E0808114
:102FE000482F8B81282F30E081E090E0022E02C034
:102FF000880F991F0A94E2F7809584238C9393C0DD
:10300000A1E3B0E0E1E3F0E08081482F8B81282F3D
:1030100030E081E090E0022E02C0880F991F0A94F0
:10302000E2F7809584238C937EC081E089837BC006
:103030008C81813009F072C08A81282F30E03E8374
:103040002D838D819E818130910549F12D813E81B5
:10305000223031052CF48D819E81009761F05BC098
:103060002D813E812230310571F18D819E81833029
:103070009105E9F150C0AAE3B0E0EAE3F0E0808115
:10308000482F8B81282F30E081E090E0022E02C093
:10309000880F991F0A94E2F7842B8C9344C0A7E30E
:1030A000B0E0E7E3F0E08081482F8B81282F30E00B
:1030B00081E090E0022E02C0880F991F0A94E2F787
:1030C000842B8C9330C0A4E3B0E0E4E3F0E0808193
:1030D000482F8B81282F30E081E090E0022E02C043
:1030E000880F991F0A94E2F7842B8C931CC0A1E3EC
:1030F000B0E0E1E3F0E08081482F8B81282F30E0C1
:1031000081E090E0022E02C0880F991F0A94E2F736
:10311000842B8C9308C081E0898305C081E089837A
:1031200002C081E08983898128960FB6F894DEBFBA
:103130000FBECDBFCF91DF910895DF93CF93CDB771
:10314000DEB728970FB6F894DEBF0FBECDBF8A83D7
:103150006B834C8319828B81883008F0F4C08C819A
:10316000882309F077C08A81282F30E038872F83A1
:103170008F8198858130910559F12F8138852230D2
:1031800031052CF48F819885009769F060C02F81FC
:1031900038852230310589F18F81988583309105FA
:1031A00009F440C054C0ABE3B0E0EBE3F0E0808151
:1031B000482F8B81282F30E081E090E0022E02C062
:1031C000880F991F0A94E2F7809584238C93BDC0E1
:1031D000A8E3B0E0E8E3F0E08081482F8B81282F5E
:1031E00030E081E090E0022E02C0880F991F0A941F
:1031F000E2F7809584238C93A8C0A5E3B0E0E5E3D3
:10320000F0E08081482F8B81282F30E081E090E032
:10321000022E02C0880F991F0A94E2F7809584233A
:103220008C9393C0A2E3B0E0E2E3F0E08081482F0A
:103230008B81282F30E081E090E0022E02C0880FC1
:10324000991F0A94E2F7809584238C937EC081E0D5
:1032500089837BC08C81813009F072C08A81282FDC
:1032600030E03E832D838D819E818130910549F12F
:103270002D813E81223031052CF48D819E81009775
:1032800061F05BC02D813E812230310571F18D816D
:103290009E8183309105E9F150C0ABE3B0E0EBE3F0
:1032A000F0E08081482F8B81282F30E081E090E092
:1032B000022E02C0880F991F0A94E2F7842B8C9388
:1032C00044C0A8E3B0E0E8E3F0E08081482F8B81C0
:1032D000282F30E081E090E0022E02C0880F991F75
:1032E0000A94E2F7842B8C9330C0A5E3B0E0E5E3C9
:1032F000F0E08081482F8B81282F30E081E090E042
:10330000022E02C0880F991F0A94E2F7842B8C9337
:103310001CC0A2E3B0E0E2E3F0E08081482F8B81A3
:10332000282F30E081E090E0022E02C0880F991F24
:103330000A94E2F7842B8C9308C081E0898305C04E
:1033400081E0898302C081E08983898128960FB654
:10335000F894DEBF0FBECDBFCF91DF910895DF930C
:10336000CF93CDB7DEB727970FB6F894DEBF0FBE69
:10337000CDBF8A836B835D834C8319828B818830B8
:1033800008F079C08C819D81009709F474C08A810E
:10339000282F30E03F832E834E815F8141305105DD
:1033A00059F18E819F818230910534F42E813F81C5
:1033B0002115310569F05CC04E815F8142305105B5
:1033C00079F18E819F818330910509F43DC050C011
:1033D000E9E3F0E08081282F30E08B81882F90E0B6
:1033E000A90102C0559547958A95E2F7CA018170F7
:1033F000EC81FD81808341C0E6E3F0E08081282FED
:1034000030E08B81882F90E0A90102C05595479547
:103410008A95E2F7CA018170EC81FD8180832DC01D
:10342000E3E3F0E08081282F30E08B81882F90E06B
:10343000A90102C0559547958A95E2F7CA018170A6
:10344000EC81FD81808319C0E0E3F0E08081282FCA
:1034500030E08B81882F90E0A90102C055954795F7
:103460008A95E2F7CA018170EC81FD81808305C0F5
:1034700081E0898302C081E08983898127960FB624
:10348000F894DEBF0FBECDBFCF91DF910895DF93DB
:10349000CF9300D00F92CDB7DEB789836A834B8379
:1034A0008981882F90E0880F991FFC01E258FE4F18
:1034B0008A8180838981882F90E0880F991FFC0181
:1034C000E158FE4F8B8180838981882F90E0880F9F
:1034D000991FFC01E258FE4F20818981882F90E0DE
:1034E000880F991FFC01E158FE4F9081822F692FB0
:1034F00041E00E948B170F900F900F90CF91DF91BA
:103500000895DF93CF9300D000D00F92CDB7DEB7F0
:103510008A836B834C832D838B81282F30E08A81B3
:10352000882F90E0A901481B590B8D81282F30E08E
:1035300087E090E0821B930B84179507DCF18A816A
:10354000898334C08981882F90E0880F991FFC01FE
:10355000E258FE4F8C8180838981282F30E0998149
:103560008A81981B8D81492F480FC901880F991FA7
:10357000FC01E158FE4F40838981882F90E0880F3D
:10358000991FFC01E258FE4F20818981882F90E02D
:10359000880F991FFC01E158FE4F9081822F692FFF
:1035A00041E00E948B1789818F5F898399818B818C
:1035B000891740F60F900F900F900F900F90CF91BA
:1035C000DF910895DF93CF930F92CDB7DEB7898354
:1035D0008981882F90E0880F991FFC01E258FE4FE7
:1035E00020818981882F90E0880F991FFC01E15884
:1035F000FE4F9081822F692F41E00E949D180F900D
:10360000CF91DF910895DF93CF9300D00F92CDB784
:10361000DEB78A836B838A8189831AC08981882F68
:1036200090E0880F991FFC01E258FE4F20818981AC
:10363000882F90E0880F991FFC01E158FE4F908180
:10364000822F692F41E00E949D1889818F5F8983B5
:1036500099818B81891710F70F900F900F90CF9160
:10366000DF910895DF93CF930F92CDB7DEB78983B3
:103670008981882F90E0880F991FFC01E258FE4F46
:1036800020818981882F90E0880F991FFC01E158E3
:10369000FE4F9081822F692F40E00E949D180F906D
:1036A000CF91DF910895DF93CF9300D00F92CDB7E4
:1036B000DEB78A836B838A8189831AC08981882FC8
:1036C00090E0880F991FFC01E258FE4F208189810C
:1036D000882F90E0880F991FFC01E158FE4F9081E0
:1036E000822F692F40E00E949D1889818F5F898316
:1036F00099818B81891710F70F900F900F90CF91C0
:10370000DF910895DF93CF9300D0CDB7DEB78A83E2
:103710008A81882F90E0880F991FFC01E258FE4FA4
:1037200020818A81882F90E0880F991FFC01E15841
:10373000FE4F9081822F692F9E012F5F3F4FA9017D
:103740000E94AF1989818823C1F48A81882F90E073
:10375000880F991FFC01E258FE4F20818A81882F33
:1037600090E0880F991FFC01E158FE4F9081822F55
:10377000692F41E00E949D181AC089818130B9F4F7
:103780008A81882F90E0880F991FFC01E258FE4F34
:1037900020818A81882F90E0880F991FFC01E158D1
:1037A000FE4F9081822F692F40E00E949D180F905C
:1037B0000F90CF91DF910895DF93CF9300D000D089
:1037C000CDB7DEB78B836C838B81898352C08981AF
:1037D000882F90E0880F991FFC01E258FE4F40812E
:1037E0008981882F90E0880F991FFC01E158FE4FD6
:1037F00090819E012E5F3F4F842F692FA9010E9467
:10380000AF198A818823C1F48981882F90E0880FBD
:10381000991FFC01E258FE4F20818981882F90E09A
:10382000880F991FFC01E158FE4F9081822F692F6C
:1038300041E00E949D181AC08A818130B9F48981C3
:10384000882F90E0880F991FFC01E258FE4F2081DD
:103850008981882F90E0880F991FFC01E158FE4F65
:103860009081822F692F40E00E949D1889818F5F8F
:10387000898399818C81891708F0A9CF0F900F90C7
:103880000F900F90CF91DF910895AF92BF92CF929A
:10389000DF92EF92FF920F931F93DF93CF93CDB7F9
:1038A000DEB729970FB6F894DEBF0FBECDBF8A836F
:1038B0007C836B834D838A81882F90E0880F991FCA
:1038C000FC01E258FE4F20818A81882F90E0880F0A
:1038D000991FFC01E158FE4F9081822F692F9E01B4
:1038E0002F5F3F4FA9010E94AF198981882309F0FA
:1038F000A3C08A81882F90E0880F991FFC01E258AD
:10390000FE4F20818A81882F90E0880F991FFC014B
:10391000E158FE4F9081822F692F41E00E949D184F
:103920008D81282F30E039872887888599850097F1
:1039300039F0288539852130310509F43FC022C18D
:103940008B819C815C01CC24DD24EE24FF24870143
:103950002A2D3B2D4C2D5D2D6E2D7F2D802F912FEF
:1039600001E00E94B40A8A81882F90E0880F991F95
:10397000FC01E258FE4F20818A81882F90E0880F59
:10398000991FFC01E158FE4F9081822F692F40E082
:103990000E949D188B819C815C01CC24DD24EE2447
:1039A000FF2487012A2D3B2D4C2D5D2D6E2D7F2D63
:1039B000802F912F01E00E94B40AE4C08B819C818A
:1039C0005C01CC24DD24EE24FF2487012A2D3B2D2D
:1039D0004C2D5D2D6E2D7F2D802F912F00E00E94AC
:1039E000B40A8A81882F90E0880F991FFC01E25861
:1039F000FE4F20818A81882F90E0880F991FFC015B
:103A0000E158FE4F9081822F692F40E00E949D185F
:103A10008B819C815C01CC24DD24EE24FF24870172
:103A20002A2D3B2D4C2D5D2D6E2D7F2D802F912F1E
:103A300000E00E94B40AA6C08981813009F0A2C0CA
:103A40008A81882F90E0880F991FFC01E258FE4F71
:103A500020818A81882F90E0880F991FFC01E1580E
:103A6000FE4F9081822F692F40E00E949D188D812A
:103A7000282F30E03F832E838E819F81009739F07D
:103A80002E813F812130310509F43FC07BC08B81FD
:103A90009C815C01CC24DD24EE24FF2487012A2DA7
:103AA0003B2D4C2D5D2D6E2D7F2D802F912F01E014
:103AB0000E94B40A8A81882F90E0880F991FFC0128
:103AC000E258FE4F20818A81882F90E0880F991F4D
:103AD000FC01E158FE4F9081822F692F41E00E9446
:103AE0009D188B819C815C01CC24DD24EE24FF2475
:103AF00087012A2D3B2D4C2D5D2D6E2D7F2D802F86
:103B0000912F01E00E94B40A3DC08B819C815C0131
:103B1000CC24DD24EE24FF2487012A2D3B2D4C2DBF
:103B20005D2D6E2D7F2D802F912F00E00E94B40A15
:103B30008A81882F90E0880F991FFC01E258FE4F80
:103B400020818A81882F90E0880F991FFC01E1581D
:103B5000FE4F9081822F692F41E00E949D188B813A
:103B60009C815C01CC24DD24EE24FF2487012A2DD6
:103B70003B2D4C2D5D2D6E2D7F2D802F912F00E044
:103B80000E94B40A29960FB6F894DEBF0FBECDBFCF
:103B9000CF91DF911F910F91FF90EF90DF90CF9029
:103BA000BF90AF9008950F93DF93CF93CDB7DEB75B
:103BB00089E060E10E94531B82E060E00E94E91608
:103BC00024EF31E040E050E060E070E080E090E021
:103BD00001E00E94B40ACF91DF910F9108950F93F5
:103BE000DF93CF93CDB7DEB780E067E042E020E01F
:103BF0000E94811A88E061E045E00E94471A83E054
:103C000060E040E00E948B1783E060E041E00E94AA
:103C10009D180E9498140E947C1483ED9DE10E94DF
:103C2000D21589E060E141E020E00E94811A80E045
:103C30000E94E21A81E068E00E94031B24EF31E059
:103C400040E050E060E070E080E090E001E00E9441
:103C5000B40A80E068E00E94531B24EF31E040E0AA
:103C600050E060E070E080E090E001E00E94B40A83
:103C7000DECF629FD001739FF001829FE00DF11DA6
:103C8000649FE00DF11D929FF00D839FF00D749FD6
:103C9000F00D659FF00D9927729FB00DE11DF91F82
:103CA000639FB00DE11DF91FBD01CF0111240895DF
:103CB0002F923F924F925F926F927F928F929F923C
:103CC000AF92BF92CF92DF92EF92FF920F931F932A
:103CD000CF93DF93CDB7DEB7CA1BDB0B0FB6F894DB
:103CE000DEBF0FBECDBF09942A88398848885F841B
:103CF0006E847D848C849B84AA84B984C884DF808C
:103D0000EE80FD800C811B81AA81B981CE0FD11D6F
:103D10000FB6F894DEBF0FBECDBFED010895F89445
:023D2000FFCFD3
:103D22000000000000000000000102020303030380
:103D32000404040404040404050505050505050539
:103D42000505050505050505060606060606060619
:103D52000606060606060606060606060606060601
:103D620006060606060606060707070707070707E9
:103D720007070707070707070707070707070707D1
:103D820007070707070707070707070707070707C1
:103D920007070707070707070707070707070707B1
:103DA2000707070707070707080808080808080899
:103DB2000808080808080808080808080808080881
:103DC2000808080808080808080808080808080871
:103DD2000808080808080808080808080808080861
:103DE2000808080808080808080808080808080851
:103DF2000808080808080808080808080808080841
:103E02000808080808080808080808080808080830
:103E12000808080808080808080808080808080820
:083E2200080808080808080858
:00000001FF
